{
  "transactions": [
    {
      "hash": "0x7184b64bae642e6a0e695e887cd6382707e5b892cae0772cadb59bcc514396eb",
      "transactionType": "CALL",
      "contractName": null,
      "contractAddress": "0x23199433ffffd40091fd2932021e8264939dae4d",
      "function": "mint(address,uint256)",
      "arguments": [
        "0xCBC1Ca657D5C06Da86835bbE9901260f09Eb4c3B",
        "1000000000000000000000000"
      ],
      "transaction": {
        "from": "0xcbc1ca657d5c06da86835bbe9901260f09eb4c3b",
        "to": "0x23199433ffffd40091fd2932021e8264939dae4d",
        "gas": "0x1975e",
        "value": "0x0",
        "input": "0x40c10f19000000000000000000000000cbc1ca657d5c06da86835bbe9901260f09eb4c3b00000000000000000000000000000000000000000000d3c21bcecceda1000000",
        "nonce": "0x5",
        "chainId": "0x13882"
      },
      "additionalContracts": [],
      "isFixedGasLimit": false
    }
  ],
  "receipts": [
    {
      "status": "0x1",
      "cumulativeGasUsed": "0x1168b",
      "logs": [
        {
          "address": "0x23199433ffffd40091fd2932021e8264939dae4d",
          "topics": [
            "0xddf252ad1be2c89b69c2b068fc378daa952ba7f163c4a11628f55a4df523b3ef",
            "0x0000000000000000000000000000000000000000000000000000000000000000",
            "0x000000000000000000000000cbc1ca657d5c06da86835bbe9901260f09eb4c3b"
          ],
          "data": "0x00000000000000000000000000000000000000000000d3c21bcecceda1000000",
          "blockHash": "0x7601d26d1e46ddfecfab0b400bd872e5ce8d79fe03ef682d3a4cb5f3fe3d1968",
          "blockNumber": "0x20d2c7b",
          "blockTimestamp": "0x699e02a9",
          "transactionHash": "0x7184b64bae642e6a0e695e887cd6382707e5b892cae0772cadb59bcc514396eb",
          "transactionIndex": "0x0",
          "logIndex": "0x0",
          "removed": false
        },
        {
          "address": "0x0000000000000000000000000000000000001010",
          "topics": [
            "0x4dfe1bbbcf077ddc3e01291eea2d5c70c2b422b415d95645b9adcfd678cb1d63",
            "0x0000000000000000000000000000000000000000000000000000000000001010",
            "0x000000000000000000000000cbc1ca657d5c06da86835bbe9901260f09eb4c3b",
            "0x0000000000000000000000007ee41d8a25641000661b1ef5e6ae8a00400466b0"
          ],
          "data": "0x0000000000000000000000000000000000000000000000000007cb5d28360a250000000000000000000000000000000000000000000000000dbe4f8e26468fcb0000000000000000000000000000000000000000000025c1c7c15a888e785d7b0000000000000000000000000000000000000000000000000db68430fe1085a60000000000000000000000000000000000000000000025c1c7c925e5b6ae67a0",
          "blockHash": "0x7601d26d1e46ddfecfab0b400bd872e5ce8d79fe03ef682d3a4cb5f3fe3d1968",
          "blockNumber": "0x20d2c7b",
          "blockTimestamp": "0x699e02a9",
          "transactionHash": "0x7184b64bae642e6a0e695e887cd6382707e5b892cae0772cadb59bcc514396eb",
          "transactionIndex": "0x0",
          "logIndex": "0x1",
          "removed": false
        }
      ],
      "logsBloom": "0x00000000000000000000000000000000000010080000000000000000000000000000000000000000000000000000000000008000040000200000000000000000000000000000000000000008000000800000000000000000000100000000000000000000020808000000000000000800000000000000000080000010000000000000000000000000020000000400000000000000000000000000000000000000200000000000000000000000000000000000000000000000000000000000004000000002000000000001000000000000000000400000000000100000000020000000000000000000000000000000000000000000000000000000000000100000",
      "type": "0x2",
      "transactionHash": "0x7184b64bae642e6a0e695e887cd6382707e5b892cae0772cadb59bcc514396eb",
      "transactionIndex": "0x0",
      "blockHash": "0x7601d26d1e46ddfecfab0b400bd872e5ce8d79fe03ef682d3a4cb5f3fe3d1968",
      "blockNumber": "0x20d2c7b",
      "gasUsed": "0x1168b",
      "effectiveGasPrice": "0x729e0284e",
      "from": "0xcbc1ca657d5c06da86835bbe9901260f09eb4c3b",
      "to": "0x23199433ffffd40091fd2932021e8264939dae4d",
      "contractAddress": null
    }
  ],
  "libraries": [],
  "pending": [],
  "returns": {},
  "timestamp": 1771963049349,
  "chain": 80002,
  "commit": "1988b81"
}