{
  "transactions": [
    {
      "hash": "0xb80161ac5134c4aee5f434019bcee7bc9d43d6e1fdcfc4a6c3374dd00dfca0d5",
      "transactionType": "CALL",
      "contractName": null,
      "contractAddress": "0x029db0b93e602c8d5ec06ae8475e10ae0579e13e",
      "function": "mint(address,uint256)",
      "arguments": [
        "0xCBC1Ca657D5C06Da86835bbE9901260f09Eb4c3B",
        "1000000000000000000000000"
      ],
      "transaction": {
        "from": "0xcbc1ca657d5c06da86835bbe9901260f09eb4c3b",
        "to": "0x029db0b93e602c8d5ec06ae8475e10ae0579e13e",
        "gas": "0x1975e",
        "value": "0x0",
        "input": "0x40c10f19000000000000000000000000cbc1ca657d5c06da86835bbe9901260f09eb4c3b00000000000000000000000000000000000000000000d3c21bcecceda1000000",
        "nonce": "0x29",
        "chainId": "0x13882"
      },
      "additionalContracts": [],
      "isFixedGasLimit": false
    }
  ],
  "receipts": [
    {
      "status": "0x1",
      "cumulativeGasUsed": "0x42e36",
      "logs": [
        {
          "address": "0x029db0b93e602c8d5ec06ae8475e10ae0579e13e",
          "topics": [
            "0xddf252ad1be2c89b69c2b068fc378daa952ba7f163c4a11628f55a4df523b3ef",
            "0x0000000000000000000000000000000000000000000000000000000000000000",
            "0x000000000000000000000000cbc1ca657d5c06da86835bbe9901260f09eb4c3b"
          ],
          "data": "0x00000000000000000000000000000000000000000000d3c21bcecceda1000000",
          "blockHash": "0x9a19dd0a68012051718930335a517fa950ac6ac14fb4b593e197e9ebad82f9e4",
          "blockNumber": "0x20e9b9f",
          "blockTimestamp": "0x69a0e0f1",
          "transactionHash": "0xb80161ac5134c4aee5f434019bcee7bc9d43d6e1fdcfc4a6c3374dd00dfca0d5",
          "transactionIndex": "0x1",
          "logIndex": "0x3",
          "removed": false
        },
        {
          "address": "0x0000000000000000000000000000000000001010",
          "topics": [
            "0x4dfe1bbbcf077ddc3e01291eea2d5c70c2b422b415d95645b9adcfd678cb1d63",
            "0x0000000000000000000000000000000000000000000000000000000000001010",
            "0x000000000000000000000000cbc1ca657d5c06da86835bbe9901260f09eb4c3b",
            "0x0000000000000000000000007ee41d8a25641000661b1ef5e6ae8a00400466b0"
          ],
          "data": "0x000000000000000000000000000000000000000000000000000caaaabc3ffc0000000000000000000000000000000000000000000000000004d25707bb1dff2a00000000000000000000000000000000000000000000280cb2b0ee584133607c00000000000000000000000000000000000000000000000004c5ac5cfede032a00000000000000000000000000000000000000000000280cb2bd9902fd735c7c",
          "blockHash": "0x9a19dd0a68012051718930335a517fa950ac6ac14fb4b593e197e9ebad82f9e4",
          "blockNumber": "0x20e9b9f",
          "blockTimestamp": "0x69a0e0f1",
          "transactionHash": "0xb80161ac5134c4aee5f434019bcee7bc9d43d6e1fdcfc4a6c3374dd00dfca0d5",
          "transactionIndex": "0x1",
          "logIndex": "0x4",
          "removed": false
        }
      ],
      "logsBloom": "0x00000000000000000000000000000000000000080000000000000000000000000000000000000000000000000000000000008000000000000000000000000000000000000000000000000008000000800000000000000000000100000000000000000000020808000000004000000800000000000000000080000010000000000000000000000000020000000400000000000000000000000000000000000000200000000000000000000000000001000000000000000000000000010000004000000002000000000001000000000000000000400000000000100000000020000000000000000000000000000000000000000000000000000000000000100000",
      "type": "0x2",
      "transactionHash": "0xb80161ac5134c4aee5f434019bcee7bc9d43d6e1fdcfc4a6c3374dd00dfca0d5",
      "transactionIndex": "0x1",
      "blockHash": "0x9a19dd0a68012051718930335a517fa950ac6ac14fb4b593e197e9ebad82f9e4",
      "blockNumber": "0x20e9b9f",
      "gasUsed": "0x1168b",
      "effectiveGasPrice": "0xba43b743f",
      "from": "0xcbc1ca657d5c06da86835bbe9901260f09eb4c3b",
      "to": "0x029db0b93e602c8d5ec06ae8475e10ae0579e13e",
      "contractAddress": null
    }
  ],
  "libraries": [],
  "pending": [],
  "returns": {},
  "timestamp": 1772151026546,
  "chain": 80002,
  "commit": "f0a6e59"
}