{
  "transactions": [
    {
      "hash": "0xd205d5bd341dfd3486e3ecdff5597deac41885f299fd590865b6907e23c8f192",
      "transactionType": "CALL",
      "contractName": null,
      "contractAddress": "0x965c055047f4139de1e0a800d05b9f0400f37e32",
      "function": "setSupportedToken(address,bool)",
      "arguments": [
        "0x029dB0b93E602C8D5EC06ae8475e10ae0579E13E",
        "true"
      ],
      "transaction": {
        "from": "0xcbc1ca657d5c06da86835bbe9901260f09eb4c3b",
        "to": "0x965c055047f4139de1e0a800d05b9f0400f37e32",
        "gas": "0xfc8a",
        "value": "0x0",
        "input": "0xe7986466000000000000000000000000029db0b93e602c8d5ec06ae8475e10ae0579e13e0000000000000000000000000000000000000000000000000000000000000001",
        "nonce": "0x33",
        "chainId": "0x13882"
      },
      "additionalContracts": [],
      "isFixedGasLimit": false
    }
  ],
  "receipts": [
    {
      "status": "0x1",
      "cumulativeGasUsed": "0xb6d6",
      "logs": [
        {
          "address": "0x0000000000000000000000000000000000001010",
          "topics": [
            "0x4dfe1bbbcf077ddc3e01291eea2d5c70c2b422b415d95645b9adcfd678cb1d63",
            "0x0000000000000000000000000000000000000000000000000000000000001010",
            "0x000000000000000000000000cbc1ca657d5c06da86835bbe9901260f09eb4c3b",
            "0x0000000000000000000000007ee41d8a25641000661b1ef5e6ae8a00400466b0"
          ],
          "data": "0x000000000000000000000000000000000000000000000000001dbcc2ea679cd40000000000000000000000000000000000000000000000000e69e62450a94ef0000000000000000000000000000000000000000000002847a86c1389b93153a90000000000000000000000000000000000000000000000000e4c29616641b21c000000000000000000000000000000000000000000002847a889d04ca398f07d",
          "blockHash": "0xfcc7c42f230af2df82a8f79142be196fbb991dcc3334781ddb3f3bff8c74c474",
          "blockNumber": "0x20ee7a3",
          "blockTimestamp": "0x69a178f9",
          "transactionHash": "0xd205d5bd341dfd3486e3ecdff5597deac41885f299fd590865b6907e23c8f192",
          "transactionIndex": "0x0",
          "logIndex": "0x0",
          "removed": false
        }
      ],
      "logsBloom": "0x00000000000000000000000000000000000000080000000000000000000000000000000000000000000000000000000000008000000000000000000000000000000000000000000000000000000000800000000000000000000100000000000000000000000808000000000000000000000000000000000080000000000000000000000000000000020000000400000000000000000000000000000000000000200000000000000000000000000000000000000000000000000000000000004000000000000000000001000000000000000000400000000000100000000000000000000000000000000000000000000000000000000000000000000000100000",
      "type": "0x2",
      "transactionHash": "0xd205d5bd341dfd3486e3ecdff5597deac41885f299fd590865b6907e23c8f192",
      "transactionIndex": "0x0",
      "blockHash": "0xfcc7c42f230af2df82a8f79142be196fbb991dcc3334781ddb3f3bff8c74c474",
      "blockNumber": "0x20ee7a3",
      "gasUsed": "0xb6d6",
      "effectiveGasPrice": "0x29a31a1ffd",
      "from": "0xcbc1ca657d5c06da86835bbe9901260f09eb4c3b",
      "to": "0x965c055047f4139de1e0a800d05b9f0400f37e32",
      "contractAddress": null
    }
  ],
  "libraries": [],
  "pending": [],
  "returns": {},
  "timestamp": 1772189946619,
  "chain": 80002,
  "commit": "f0a6e59"
}