{
  "transactions": [
    {
      "hash": "0x869e76a1f297300cfadeb684c54f805a6c96a47119189e72a5e7c4fbf90c2f55",
      "transactionType": "CALL",
      "contractName": null,
      "contractAddress": "0xdf0d76a719484c74a4cecd3ba614265d8a017f73",
      "function": "setSupportedToken(address,bool)",
      "arguments": [
        "0x23199433ffffD40091fD2932021e8264939DAe4d",
        "true"
      ],
      "transaction": {
        "from": "0xcbc1ca657d5c06da86835bbe9901260f09eb4c3b",
        "to": "0xdf0d76a719484c74a4cecd3ba614265d8a017f73",
        "gas": "0xfcb6",
        "value": "0x0",
        "input": "0xe798646600000000000000000000000023199433ffffd40091fd2932021e8264939dae4d0000000000000000000000000000000000000000000000000000000000000001",
        "nonce": "0x6",
        "chainId": "0x13882"
      },
      "additionalContracts": [],
      "isFixedGasLimit": false
    }
  ],
  "receipts": [
    {
      "status": "0x1",
      "cumulativeGasUsed": "0x112fe",
      "logs": [
        {
          "address": "0x0000000000000000000000000000000000001010",
          "topics": [
            "0x4dfe1bbbcf077ddc3e01291eea2d5c70c2b422b415d95645b9adcfd678cb1d63",
            "0x0000000000000000000000000000000000000000000000000000000000001010",
            "0x000000000000000000000000cbc1ca657d5c06da86835bbe9901260f09eb4c3b",
            "0x0000000000000000000000007ee41d8a25641000661b1ef5e6ae8a00400466b0"
          ],
          "data": "0x000000000000000000000000000000000000000000000000000428f90accbc000000000000000000000000000000000000000000000000000db68430fdcbf9710000000000000000000000000000000000000000000025c1ea7edc6fcf99309b0000000000000000000000000000000000000000000000000db25b37f2ff3d710000000000000000000000000000000000000000000025c1ea830568da65ec9b",
          "blockHash": "0x69ed8ec3c27c2468001f068bb1cff86b5797d5615c93f211e05e399b33a3a0d3",
          "blockNumber": "0x20d2e15",
          "blockTimestamp": "0x699e05dd",
          "transactionHash": "0x869e76a1f297300cfadeb684c54f805a6c96a47119189e72a5e7c4fbf90c2f55",
          "transactionIndex": "0x1",
          "logIndex": "0x1",
          "removed": false
        }
      ],
      "logsBloom": "0x00000000000000000000000000000000000000080000000000000000000000000000000000000000000000000000000000008000000000000000000000000000000000000000000000000000000000800000000000000000000100000000000000000000000808000000000000000000000000000000000080000000000000000000000000000000020000000400000000000000000000000000000000000000200000000000000000000000000000000000000000000000000000000000004000000000000000000001000000000000000000400000000000100000000000000000000000000000000000000000000000000000000000000000000000100000",
      "type": "0x2",
      "transactionHash": "0x869e76a1f297300cfadeb684c54f805a6c96a47119189e72a5e7c4fbf90c2f55",
      "transactionIndex": "0x1",
      "blockHash": "0x69ed8ec3c27c2468001f068bb1cff86b5797d5615c93f211e05e399b33a3a0d3",
      "blockNumber": "0x20d2e15",
      "gasUsed": "0xb6f6",
      "effectiveGasPrice": "0x5d21dba3f",
      "from": "0xcbc1ca657d5c06da86835bbe9901260f09eb4c3b",
      "to": "0xdf0d76a719484c74a4cecd3ba614265d8a017f73",
      "contractAddress": null
    }
  ],
  "libraries": [],
  "pending": [],
  "returns": {},
  "timestamp": 1771963870611,
  "chain": 80002,
  "commit": "1988b81"
}