{
  "transactions": [
    {
      "hash": "0xde68d8296d35b9f9267be87e769e80ddc73b1597c1b3598d350d46d2836c05a9",
      "transactionType": "CALL",
      "contractName": null,
      "contractAddress": "0x777200ea6f3f796e7b264dd3fb45283e2d41fd5d",
      "function": "setSupportedToken(address,bool)",
      "arguments": [
        "0x029dB0b93E602C8D5EC06ae8475e10ae0579E13E",
        "true"
      ],
      "transaction": {
        "from": "0xcbc1ca657d5c06da86835bbe9901260f09eb4c3b",
        "to": "0x777200ea6f3f796e7b264dd3fb45283e2d41fd5d",
        "gas": "0xfc8a",
        "value": "0x0",
        "input": "0xe7986466000000000000000000000000029db0b93e602c8d5ec06ae8475e10ae0579e13e0000000000000000000000000000000000000000000000000000000000000001",
        "nonce": "0x28",
        "chainId": "0x13882"
      },
      "additionalContracts": [],
      "isFixedGasLimit": false
    }
  ],
  "receipts": [
    {
      "status": "0x1",
      "cumulativeGasUsed": "0x3ce81",
      "logs": [
        {
          "address": "0x0000000000000000000000000000000000001010",
          "topics": [
            "0x4dfe1bbbcf077ddc3e01291eea2d5c70c2b422b415d95645b9adcfd678cb1d63",
            "0x0000000000000000000000000000000000000000000000000000000000001010",
            "0x000000000000000000000000cbc1ca657d5c06da86835bbe9901260f09eb4c3b",
            "0x0000000000000000000000007ee41d8a25641000661b1ef5e6ae8a00400466b0"
          ],
          "data": "0x00000000000000000000000000000000000000000000000000300eacbff85c00000000000000000000000000000000000000000000000000050265b47b4359d400000000000000000000000000000000000000000000280c945898738479493400000000000000000000000000000000000000000000000004d25707bb4afdd400000000000000000000000000000000000000000000280c9488a7204471a534",
          "blockHash": "0xeca27bd59252878a55fdac8fdd4dc483fc2305b6a51f434a13db5d13c64f6cb3",
          "blockNumber": "0x20e9b95",
          "blockTimestamp": "0x69a0e0dd",
          "transactionHash": "0xde68d8296d35b9f9267be87e769e80ddc73b1597c1b3598d350d46d2836c05a9",
          "transactionIndex": "0x1",
          "logIndex": "0x3",
          "removed": false
        }
      ],
      "logsBloom": "0x00000000000000000000000000000000000000080000000000000000000000000000000000000000000000000000000000008000000000000000000000000000000000000000000000000000000000800000000000000000000100000000000000000000000808000000000000000000000000000000000080000000000000000000000000000000020000000400000000000000000000000000000000000000200000000000000000000000000000000000000000000000000000000000004000000000000000000001000000000000000000400000000000100000000000000000000000000000000000000000000000000000000000000000000000100000",
      "type": "0x2",
      "transactionHash": "0xde68d8296d35b9f9267be87e769e80ddc73b1597c1b3598d350d46d2836c05a9",
      "transactionIndex": "0x1",
      "blockHash": "0xeca27bd59252878a55fdac8fdd4dc483fc2305b6a51f434a13db5d13c64f6cb3",
      "blockNumber": "0x20e9b95",
      "gasUsed": "0xb6d6",
      "effectiveGasPrice": "0x4349be0a3f",
      "from": "0xcbc1ca657d5c06da86835bbe9901260f09eb4c3b",
      "to": "0x777200ea6f3f796e7b264dd3fb45283e2d41fd5d",
      "contractAddress": null
    }
  ],
  "libraries": [],
  "pending": [],
  "returns": {},
  "timestamp": 1772151006215,
  "chain": 80002,
  "commit": "f0a6e59"
}